:100000000C942A000C9423040C9434000C943400B7
:100010000C9434000C9434000C9434000C94340090
:100020000C9434000C9434000C9434000C94340080
:100030000C9434000C9434000C9434000C94340070
:100040000C9434000C9434000C9434000C94340060
:100050000C94340011241FBECFE5D8E0DEBFCDBF25
:100060000E9452050C949A050C940000DF93CF93E4
:10007000CDB7DEB7A3E5B0E0E3E5F0E080818860CE
:100080008C93A3E5B0E0E3E5F0E080818F7B8C9377
:10009000A3E5B0E0E3E5F0E080818F7C8C93A3E5FD
:1000A000B0E0E3E5F0E080818C93A3E5B0E0E3E528
:1000B000F0E08081887F8C93A3E5B0E0E3E5F0E099
:1000C000808182608C93ECE5F0E08AEF8083CF91B1
:1000D000DF910895DF93CF9300D000D000D0CDB74B
:1000E000DEB79E838D8319821A821B821C821CC0FC
:1000F000E8E5F0E080818695882F90E0817090702F
:100100000097B1F3A8E5B0E0E8E5F0E08081826017
:100110008C9389819A81AB81BC810196A11DB11D0F
:1001200089839A83AB83BC838D819E81880F991FBD
:10013000880F991F9C0140E050E089819A81AB8132
:10014000BC8182179307A407B50790F226960FB6D5
:10015000F894DEBF0FBECDBFCF91DF910895DF933E
:10016000CF93CDB7DEB7EAE3F0E087E08083E7E343
:10017000F0E087E08083E4E3F0E08FE08083E1E378
:10018000F0E01082EBE3F0E01082E8E3F0E01082B0
:10019000E5E3F0E01082E2E3F0E084E08083CF91D9
:1001A000DF910895DF93CF93CDB7DEB7A5E5B0E03B
:1001B000E5E5F0E080818E7F8C93A5E5B0E0E5E594
:1001C000F0E0808182608C93ABE5B0E0EBE5F0E09D
:1001D000808180648C93CF91DF910895DF93CF93DA
:1001E000CDB7DEB7A5E5B0E0E5E5F0E080818B7F37
:1001F0008C93A5E5B0E0E5E5F0E0808188608C9324
:10020000ABE5B0E0EBE5F0E0808180688C93CF91C6
:10021000DF910895DF93CF93CDB7DEB7A4E5B0E0CB
:10022000E4E5F0E080818F7B8C93ABE5B0E0EBE51B
:10023000F0E0808180628C93CF91DF910895DF930D
:10024000CF93CDB7DEB7AFE5B0E0EFE5F0E080816A
:1002500080688C93CF91DF910895DF93CF93CDB7D2
:10026000DEB7AFE5B0E0EFE5F0E080818F778C930B
:10027000CF91DF910895DF93CF93CDB7DEB7289765
:100280000FB6F894DEBF0FBECDBF8A836B834C835D
:1002900019828B81883008F0F6C08C81813009F09A
:1002A00073C08A81282F30E038872F838F8198850B
:1002B0008230910551F12F8138852330310534F496
:1002C0008F8198858130910561F05BC02F813885E1
:1002D0002330310571F18F81988584309105E9F1E2
:1002E00050C0ABE3B0E0EBE3F0E08081482F8B81BE
:1002F000282F30E081E090E0022E02C0880F991F85
:100300000A94E2F7842B8C93C0C0A8E3B0E0E8E342
:10031000F0E08081482F8B81282F30E081E090E051
:10032000022E02C0880F991F0A94E2F7842B8C9347
:10033000ACC0A5E3B0E0E5E3F0E08081482F8B811D
:10034000282F30E081E090E0022E02C0880F991F34
:100350000A94E2F7842B8C9398C0A2E3B0E0E2E326
:10036000F0E08081482F8B81282F30E081E090E001
:10037000022E02C0880F991F0A94E2F7842B8C93F7
:1003800084C081E0898381C08C81882309F078C092
:100390008A81282F30E03E832D838D819E8182309B
:1003A000910561F12D813E812330310534F48D8139
:1003B0009E818130910569F060C02D813E8123309E
:1003C000310589F18D819E818430910509F440C009
:1003D00054C0ABE3B0E0EBE3F0E08081482F8B81C9
:1003E000282F30E081E090E0022E02C0880F991F94
:1003F0000A94E2F7809584238C9347C0A8E3B0E089
:10040000E8E3F0E08081482F8B81282F30E081E005
:1004100090E0022E02C0880F991F0A94E2F780959F
:1004200084238C9332C0A5E3B0E0E5E3F0E0808163
:10043000482F8B81282F30E081E090E0022E02C00F
:10044000880F991F0A94E2F7809584238C931DC02E
:10045000A2E3B0E0E2E3F0E08081482F8B81282F17
:1004600030E081E090E0022E02C0880F991F0A94CC
:10047000E2F7809584238C9308C081E0898305C0CE
:1004800081E0898302C081E08983898128960FB643
:10049000F894DEBF0FBECDBFCF91DF910895DF93FB
:1004A000CF9300D000D00F92CDB7DEB78A836B8395
:1004B00019828B81883008F073C08A81282F30E040
:1004C0003D832C838C819D818230910551F12C815B
:1004D0003D812330310534F48C819D81813091053B
:1004E00061F05BC02C813D812330310571F18C813D
:1004F0009D8184309105E9F150C0ABE3B0E0EBE3BE
:10050000F0E08081482F8B81282F30E081E090E05F
:10051000022E02C0880F991F0A94E2F784278C9359
:1005200041C0A8E3B0E0E8E3F0E08081482F8B8190
:10053000282F30E081E090E0022E02C0880F991F42
:100540000A94E2F784278C932DC0A5E3B0E0E5E39D
:10055000F0E08081482F8B81282F30E081E090E00F
:10056000022E02C0880F991F0A94E2F784278C9309
:1005700019C0A2E3B0E0E2E3F0E08081482F8B8174
:10058000282F30E081E090E0022E02C0880F991FF2
:100590000A94E2F784278C9305C081E0898302C026
:1005A00081E0898389810F900F900F900F900F90B9
:1005B000CF91DF910895DF93CF9300D000D00F92B9
:1005C000CDB7DEB78A836B8319828A81282F30E00A
:1005D0003D832C838C819D8182309105D9F02C81C3
:1005E0003D812330310534F48C819D81813091052A
:1005F00061F01FC02C813D812330310581F08C8159
:100600009D818430910581F014C0EBE3F0E08B8193
:10061000808311C0E8E3F0E08B8180830CC0E5E3C8
:10062000F0E08B81808307C0E2E3F0E08B81808380
:1006300002C081E0898389810F900F900F900F9005
:100640000F90CF91DF910895DF93CF93CDB7DEB7B1
:1006500027970FB6F894DEBF0FBECDBF8A836B839A
:100660005D834C8319828C819D81009709F478C049
:100670008B81883008F074C08A81282F30E03F8356
:100680002E834E815F814230510559F18E819F81C9
:100690008330910534F42E813F812130310569F09A
:1006A0005CC04E815F814330510579F18E819F811D
:1006B0008430910509F43DC050C0E9E3F0E0808149
:1006C000282F30E08B81882F90E0A90102C055953A
:1006D00047958A95E2F7CA018170EC81FD8180839C
:1006E00041C0E6E3F0E08081282F30E08B81882F45
:1006F00090E0A90102C0559547958A95E2F7CA0195
:100700008170EC81FD8180832DC0E3E3F0E0808186
:10071000282F30E08B81882F90E0A90102C05595E9
:1007200047958A95E2F7CA018170EC81FD8180834B
:1007300019C0E0E3F0E08081282F30E08B81882F22
:1007400090E0A90102C0559547958A95E2F7CA0144
:100750008170EC81FD81808305C081E0898302C0C6
:1007600081E08983898127960FB6F894DEBF0FBE9A
:10077000CDBFCF91DF910895DF93CF93CDB7DEB793
:100780000E94AF00CF91DF910895DF93CF9300D007
:10079000CDB7DEB789836A8389816A8141E00E948F
:1007A0003B010F900F90CF91DF910895DF93CF938E
:1007B00000D0CDB7DEB789836A8389816A8140E042
:1007C0000E943B010F900F90CF91DF910895DF932E
:1007D000CF9300D0CDB7DEB789836A8389816A81E0
:1007E0000E944F020F900F90CF91DF910895DF93F9
:1007F000CF93CDB7DEB70E94D2000E9436000E9490
:100800001F01CF91DF910895DF93CF930F92CDB762
:10081000DEB784E062E09E012F5F3F4FA9010E9496
:10082000240389810F90CF91DF910895DF93CF93B7
:10083000CDB7DEB70E94BC030E94F7030E943600CA
:10084000CF91DF9108951F920F920FB60F9211244E
:100850002F933F934F935F936F937F938F939F93C8
:10086000AF93BF93EF93FF93DF93CF93CDB7DEB7F3
:100870002997DEBFCDBF1C821D821E821F820BC046
:100880008C819D81AE81BF810196A11DB11D8C839C
:100890009D83AE83BF830E940404882361F48C810E
:1008A0009D81AE81BF81803523EC920720E0A207B5
:1008B00020E0B20728F38C819D81AE81BF81803515
:1008C00023EC920720E0A20720E0B20708F0D4C092
:1008D0009E01285F3F4F81E060E0A9010E94240350
:1008E0009E01275F3F4F81E062E0A9010E9424033F
:1008F0008885813009F049C081E060E00E94C5032D
:1009000082E062E00E94C50388E893E10E946A00E9
:1009100081E060E00E94D60382E062E00E94D6039C
:100920001B820FC081E061E00E94E70382E061E08A
:100930000E94E70384EF91E00E946A008B818F5F41
:100940008B838B818A3070F381E061E00E94D60353
:1009500082E061E00E94D60382E060E00E94C5036D
:1009600081E062E00E94C50388E893E10E946A008A
:1009700081E062E00E94D60382E060E00E94D6033C
:1009800081E060E00E94C50377C082E060E00E94E1
:10099000D60381E062E00E94D6031A820FC081E094
:1009A00061E00E94E70382E061E00E94E70384EFD8
:1009B00091E00E946A008A818F5F8A838A818A30EF
:1009C00070F381E061E00E94D60382E061E00E9462
:1009D000D60381E060E00E94C50382E062E00E94ED
:1009E000C50388E893E10E946A0081E060E00E940C
:1009F000D60382E062E00E94D60381E061E00E94BB
:100A0000D60382E061E00E94D60319820FC081E024
:100A100061E00E94E70382E061E00E94E70384EF67
:100A200091E00E946A0089818F5F898389818A3081
:100A300070F381E061E00E94D60382E061E00E94F1
:100A4000D60382E060E00E94C50381E062E00E947C
:100A5000C50388E893E10E946A0081E062E00E9499
:100A6000D60382E060E00E94D6038985813021F4BC
:100A700081E062E00E94C5032996DEBFCDBFCF9121
:100A8000DF91FF91EF91BF91AF919F918F917F91F6
:100A90006F915F914F913F912F910F900FBE0F90EB
:100AA0001F901895DF93CF9300D0CDB7DEB70E948B
:100AB000160481E062E00E94C50388E893E10E9489
:100AC0006A0081E062E00E94D6031A820BC081E0D6
:100AD00061E00E94E70384EF91E00E946A008A814E
:100AE0008F5F8A838A818A3090F381E061E00E947F
:100AF000D60381E060E00E94C50388E893E10E948C
:100B00006A0081E060E00E94D60319820BC081E098
:100B100061E00E94E70384EF91E00E946A0089810E
:100B20008F5F898389818A3090F381E061E00E9440
:080B3000D603BFCFF894FFCFFC
:00000001FF
